{
  "address": "0x5FbDB2315678afecb367f032d93F642f64180aa3",
  "abi": [
    {
      "inputs": [
        {
          "internalType": "string",
          "name": "_greeting",
          "type": "string"
        }
      ],
      "stateMutability": "nonpayable",
      "type": "constructor"
    },
    {
      "inputs": [],
      "name": "getGreeting",
      "outputs": [
        {
          "internalType": "string",
          "name": "",
          "type": "string"
        }
      ],
      "stateMutability": "nonpayable",
      "type": "function"
    },
    {
      "inputs": [],
      "name": "greet",
      "outputs": [
        {
          "internalType": "string",
          "name": "",
          "type": "string"
        }
      ],
      "stateMutability": "view",
      "type": "function"
    },
    {
      "inputs": [
        {
          "internalType": "string",
          "name": "_greeting",
          "type": "string"
        }
      ],
      "name": "setGreeting",
      "outputs": [],
      "stateMutability": "nonpayable",
      "type": "function"
    }
  ],
  "transactionHash": "0x87f092b8d86067d002beca6cbe52c49abe897f860f0092d233182ba6d2c84523",
  "args": [
    "Hello, Hardhat!"
  ],
  "numDeployments": 1,
  "solcInputHash": "0aab674b8e87a7ab455dbdcc2a831596",
  "bytecode": "0x60806040523480156200001157600080fd5b5060405162000ced38038062000ced833981810160405281019062000037919062000278565b6200006760405180606001604052806022815260200162000ccb60229139826200008760201b620002891760201c565b80600090805190602001906200007f92919062000156565b5050620004c5565b620001298282604051602401620000a0929190620002fe565b6040516020818303038152906040527f4b5c4277000000000000000000000000000000000000000000000000000000007bffffffffffffffffffffffffffffffffffffffffffffffffffffffff19166020820180517bffffffffffffffffffffffffffffffffffffffffffffffffffffffff83818316178352505050506200012d60201b60201c565b5050565b60008151905060006a636f6e736f6c652e6c6f679050602083016000808483855afa5050505050565b8280546200016490620003ea565b90600052602060002090601f016020900481019282620001885760008555620001d4565b82601f10620001a357805160ff1916838001178555620001d4565b82800160010185558215620001d4579182015b82811115620001d3578251825591602001919060010190620001b6565b5b509050620001e39190620001e7565b5090565b5b8082111562000202576000816000905550600101620001e8565b5090565b60006200021d620002178462000362565b62000339565b9050828152602081018484840111156200023657600080fd5b62000243848285620003b4565b509392505050565b600082601f8301126200025d57600080fd5b81516200026f84826020860162000206565b91505092915050565b6000602082840312156200028b57600080fd5b600082015167ffffffffffffffff811115620002a657600080fd5b620002b4848285016200024b565b91505092915050565b6000620002ca8262000398565b620002d68185620003a3565b9350620002e8818560208601620003b4565b620002f381620004b4565b840191505092915050565b600060408201905081810360008301526200031a8185620002bd565b90508181036020830152620003308184620002bd565b90509392505050565b60006200034562000358565b905062000353828262000420565b919050565b6000604051905090565b600067ffffffffffffffff82111562000380576200037f62000485565b5b6200038b82620004b4565b9050602081019050919050565b600081519050919050565b600082825260208201905092915050565b60005b83811015620003d4578082015181840152602081019050620003b7565b83811115620003e4576000848401525b50505050565b600060028204905060018216806200040357607f821691505b602082108114156200041a576200041962000456565b5b50919050565b6200042b82620004b4565b810181811067ffffffffffffffff821117156200044d576200044c62000485565b5b80604052505050565b7f4e487b7100000000000000000000000000000000000000000000000000000000600052602260045260246000fd5b7f4e487b7100000000000000000000000000000000000000000000000000000000600052604160045260246000fd5b6000601f19601f8301169050919050565b6107f680620004d56000396000f3fe608060405234801561001057600080fd5b50600436106100415760003560e01c8063a413686214610046578063cfae321714610062578063fe50cc7214610080575b600080fd5b610060600480360381019061005b91906104f8565b61009e565b005b61006a610165565b6040516100779190610572565b60405180910390f35b6100886101f7565b6040516100959190610572565b60405180910390f35b61014b60405180606001604052806023815260200161079e60239139600080546100c7906106cb565b80601f01602080910402602001604051908101604052809291908181526020018280546100f3906106cb565b80156101405780601f1061011557610100808354040283529160200191610140565b820191906000526020600020905b81548152906001019060200180831161012357829003601f168201915b505050505083610325565b80600090805190602001906101619291906103ed565b5050565b606060008054610174906106cb565b80601f01602080910402602001604051908101604052809291908181526020018280546101a0906106cb565b80156101ed5780601f106101c2576101008083540402835291602001916101ed565b820191906000526020600020905b8154815290600101906020018083116101d057829003601f168201915b5050505050905090565b606060008054610206906106cb565b80601f0160208091040260200160405190810160405280929190818152602001828054610232906106cb565b801561027f5780601f106102545761010080835404028352916020019161027f565b820191906000526020600020905b81548152906001019060200180831161026257829003601f168201915b5050505050905090565b610321828260405160240161029f929190610594565b6040516020818303038152906040527f4b5c4277000000000000000000000000000000000000000000000000000000007bffffffffffffffffffffffffffffffffffffffffffffffffffffffff19166020820180517bffffffffffffffffffffffffffffffffffffffffffffffffffffffff83818316178352505050506103c4565b5050565b6103bf83838360405160240161033d939291906105cb565b6040516020818303038152906040527f2ced7cef000000000000000000000000000000000000000000000000000000007bffffffffffffffffffffffffffffffffffffffffffffffffffffffff19166020820180517bffffffffffffffffffffffffffffffffffffffffffffffffffffffff83818316178352505050506103c4565b505050565b60008151905060006a636f6e736f6c652e6c6f679050602083016000808483855afa5050505050565b8280546103f9906106cb565b90600052602060002090601f01602090048101928261041b5760008555610462565b82601f1061043457805160ff1916838001178555610462565b82800160010185558215610462579182015b82811115610461578251825591602001919060010190610446565b5b50905061046f9190610473565b5090565b5b8082111561048c576000816000905550600101610474565b5090565b60006104a361049e8461063c565b610617565b9050828152602081018484840111156104bb57600080fd5b6104c6848285610689565b509392505050565b600082601f8301126104df57600080fd5b81356104ef848260208601610490565b91505092915050565b60006020828403121561050a57600080fd5b600082013567ffffffffffffffff81111561052457600080fd5b610530848285016104ce565b91505092915050565b60006105448261066d565b61054e8185610678565b935061055e818560208601610698565b6105678161078c565b840191505092915050565b6000602082019050818103600083015261058c8184610539565b905092915050565b600060408201905081810360008301526105ae8185610539565b905081810360208301526105c28184610539565b90509392505050565b600060608201905081810360008301526105e58186610539565b905081810360208301526105f98185610539565b9050818103604083015261060d8184610539565b9050949350505050565b6000610621610632565b905061062d82826106fd565b919050565b6000604051905090565b600067ffffffffffffffff8211156106575761065661075d565b5b6106608261078c565b9050602081019050919050565b600081519050919050565b600082825260208201905092915050565b82818337600083830152505050565b60005b838110156106b657808201518184015260208101905061069b565b838111156106c5576000848401525b50505050565b600060028204905060018216806106e357607f821691505b602082108114156106f7576106f661072e565b5b50919050565b6107068261078c565b810181811067ffffffffffffffff821117156107255761072461075d565b5b80604052505050565b7f4e487b7100000000000000000000000000000000000000000000000000000000600052602260045260246000fd5b7f4e487b7100000000000000000000000000000000000000000000000000000000600052604160045260246000fd5b6000601f19601f830116905091905056fe4368616e67696e67206772656574696e672066726f6d202725732720746f2027257327a2646970667358221220faf17df972ac7fdde37b01ceedbdb95014db8f53de00349361f9bedc0c5e3b0d64736f6c634300080400334465706c6f79696e67206120477265657465722077697468206772656574696e673a",
  "devdoc": {
    "kind": "dev",
    "methods": {},
    "version": 1
  },
  "userdoc": {
    "kind": "user",
    "methods": {},
    "version": 1
  },
  "storageLayout": {
    "storage": [
      {
        "astId": 4,
        "contract": "contracts/Greeter.sol:Greeter",
        "label": "greeting",
        "offset": 0,
        "slot": "0",
        "type": "t_string_storage"
      }
    ],
    "types": {
      "t_string_storage": {
        "encoding": "bytes",
        "label": "string",
        "numberOfBytes": "32"
      }
    }
  }
}